{
  "contractName": "MedicalRecords",
  "abi": [
    {
      "inputs": [],
      "stateMutability": "nonpayable",
      "type": "constructor"
    },
    {
      "inputs": [],
      "name": "admin",
      "outputs": [
        {
          "internalType": "address",
          "name": "",
          "type": "address"
        }
      ],
      "stateMutability": "view",
      "type": "function",
      "constant": true
    },
    {
      "inputs": [
        {
          "internalType": "uint256",
          "name": "",
          "type": "uint256"
        }
      ],
      "name": "hospitalAddresses",
      "outputs": [
        {
          "internalType": "address",
          "name": "",
          "type": "address"
        }
      ],
      "stateMutability": "view",
      "type": "function",
      "constant": true
    },
    {
      "inputs": [
        {
          "internalType": "address",
          "name": "",
          "type": "address"
        }
      ],
      "name": "hospitals",
      "outputs": [
        {
          "internalType": "string",
          "name": "hospitalId",
          "type": "string"
        }
      ],
      "stateMutability": "view",
      "type": "function",
      "constant": true
    },
    {
      "inputs": [
        {
          "internalType": "address",
          "name": "",
          "type": "address"
        }
      ],
      "name": "insuranceCompanies",
      "outputs": [
        {
          "internalType": "string",
          "name": "insuranceProviderId",
          "type": "string"
        }
      ],
      "stateMutability": "view",
      "type": "function",
      "constant": true
    },
    {
      "inputs": [
        {
          "internalType": "uint256",
          "name": "",
          "type": "uint256"
        }
      ],
      "name": "insuranceCompanyAddresses",
      "outputs": [
        {
          "internalType": "address",
          "name": "",
          "type": "address"
        }
      ],
      "stateMutability": "view",
      "type": "function",
      "constant": true
    },
    {
      "inputs": [
        {
          "internalType": "uint256",
          "name": "",
          "type": "uint256"
        }
      ],
      "name": "patientAddresses",
      "outputs": [
        {
          "internalType": "address",
          "name": "",
          "type": "address"
        }
      ],
      "stateMutability": "view",
      "type": "function",
      "constant": true
    },
    {
      "inputs": [
        {
          "internalType": "address",
          "name": "",
          "type": "address"
        }
      ],
      "name": "patients",
      "outputs": [
        {
          "internalType": "string",
          "name": "patientId",
          "type": "string"
        },
        {
          "internalType": "string",
          "name": "patientData",
          "type": "string"
        }
      ],
      "stateMutability": "view",
      "type": "function",
      "constant": true
    },
    {
      "inputs": [],
      "name": "getAdminAddress",
      "outputs": [
        {
          "internalType": "address",
          "name": "",
          "type": "address"
        }
      ],
      "stateMutability": "view",
      "type": "function",
      "constant": true
    },
    {
      "inputs": [
        {
          "internalType": "address",
          "name": "hospitalAddress",
          "type": "address"
        },
        {
          "internalType": "string",
          "name": "hospitalId",
          "type": "string"
        }
      ],
      "name": "createHospital",
      "outputs": [],
      "stateMutability": "nonpayable",
      "type": "function"
    },
    {
      "inputs": [
        {
          "internalType": "address",
          "name": "insuranceCompanyAddress",
          "type": "address"
        },
        {
          "internalType": "string",
          "name": "insuranceProviderId",
          "type": "string"
        }
      ],
      "name": "createInsuranceCompany",
      "outputs": [],
      "stateMutability": "nonpayable",
      "type": "function"
    },
    {
      "inputs": [
        {
          "internalType": "address",
          "name": "patientAddress",
          "type": "address"
        },
        {
          "internalType": "string",
          "name": "patientId",
          "type": "string"
        }
      ],
      "name": "addPatient",
      "outputs": [],
      "stateMutability": "nonpayable",
      "type": "function"
    },
    {
      "inputs": [],
      "name": "getAllHospitals",
      "outputs": [
        {
          "components": [
            {
              "internalType": "string",
              "name": "hospitalId",
              "type": "string"
            },
            {
              "internalType": "address[]",
              "name": "patientAddresses",
              "type": "address[]"
            }
          ],
          "internalType": "struct MedicalRecords.Hospital[]",
          "name": "",
          "type": "tuple[]"
        }
      ],
      "stateMutability": "view",
      "type": "function",
      "constant": true
    },
    {
      "inputs": [],
      "name": "getAllPatients",
      "outputs": [
        {
          "components": [
            {
              "internalType": "string",
              "name": "patientId",
              "type": "string"
            },
            {
              "internalType": "address[]",
              "name": "authorizedHospitals",
              "type": "address[]"
            },
            {
              "internalType": "address[]",
              "name": "authorizedInsuranceCompanies",
              "type": "address[]"
            },
            {
              "internalType": "string",
              "name": "patientData",
              "type": "string"
            }
          ],
          "internalType": "struct MedicalRecords.Patient[]",
          "name": "",
          "type": "tuple[]"
        }
      ],
      "stateMutability": "view",
      "type": "function",
      "constant": true
    },
    {
      "inputs": [],
      "name": "getAllInsuranceCompanies",
      "outputs": [
        {
          "components": [
            {
              "internalType": "string",
              "name": "insuranceProviderId",
              "type": "string"
            },
            {
              "internalType": "address[]",
              "name": "patientAddresses",
              "type": "address[]"
            }
          ],
          "internalType": "struct MedicalRecords.InsuranceCompany[]",
          "name": "",
          "type": "tuple[]"
        }
      ],
      "stateMutability": "view",
      "type": "function",
      "constant": true
    },
    {
      "inputs": [
        {
          "internalType": "address",
          "name": "patientAddress",
          "type": "address"
        }
      ],
      "name": "getPatientInfo",
      "outputs": [
        {
          "components": [
            {
              "internalType": "string",
              "name": "patientId",
              "type": "string"
            },
            {
              "internalType": "address[]",
              "name": "authorizedHospitals",
              "type": "address[]"
            },
            {
              "internalType": "address[]",
              "name": "authorizedInsuranceCompanies",
              "type": "address[]"
            },
            {
              "internalType": "string",
              "name": "patientData",
              "type": "string"
            }
          ],
          "internalType": "struct MedicalRecords.Patient",
          "name": "",
          "type": "tuple"
        }
      ],
      "stateMutability": "view",
      "type": "function",
      "constant": true
    },
    {
      "inputs": [
        {
          "internalType": "address",
          "name": "hospitalAddress",
          "type": "address"
        }
      ],
      "name": "getHospitalInfo",
      "outputs": [
        {
          "components": [
            {
              "internalType": "string",
              "name": "hospitalId",
              "type": "string"
            },
            {
              "internalType": "address[]",
              "name": "patientAddresses",
              "type": "address[]"
            }
          ],
          "internalType": "struct MedicalRecords.Hospital",
          "name": "",
          "type": "tuple"
        }
      ],
      "stateMutability": "view",
      "type": "function",
      "constant": true
    },
    {
      "inputs": [
        {
          "internalType": "address",
          "name": "insuranceCompanyAddress",
          "type": "address"
        }
      ],
      "name": "getInsuranceCompanyInfo",
      "outputs": [
        {
          "components": [
            {
              "internalType": "string",
              "name": "insuranceProviderId",
              "type": "string"
            },
            {
              "internalType": "address[]",
              "name": "patientAddresses",
              "type": "address[]"
            }
          ],
          "internalType": "struct MedicalRecords.InsuranceCompany",
          "name": "",
          "type": "tuple"
        }
      ],
      "stateMutability": "view",
      "type": "function",
      "constant": true
    },
    {
      "inputs": [
        {
          "internalType": "address",
          "name": "patientAddress",
          "type": "address"
        },
        {
          "internalType": "string",
          "name": "newPatientData",
          "type": "string"
        }
      ],
      "name": "updatePatientData",
      "outputs": [],
      "stateMutability": "nonpayable",
      "type": "function"
    },
    {
      "inputs": [
        {
          "internalType": "address",
          "name": "patientAddress",
          "type": "address"
        }
      ],
      "name": "getAuthorizedHospitals",
      "outputs": [
        {
          "internalType": "address[]",
          "name": "",
          "type": "address[]"
        }
      ],
      "stateMutability": "view",
      "type": "function",
      "constant": true
    },
    {
      "inputs": [
        {
          "internalType": "address",
          "name": "patientAddress",
          "type": "address"
        }
      ],
      "name": "getAuthorizedInsuranceCompanies",
      "outputs": [
        {
          "internalType": "address[]",
          "name": "",
          "type": "address[]"
        }
      ],
      "stateMutability": "view",
      "type": "function",
      "constant": true
    },
    {
      "inputs": [
        {
          "internalType": "address",
          "name": "patientAddress",
          "type": "address"
        },
        {
          "internalType": "address",
          "name": "insuranceCompanyAddress",
          "type": "address"
        }
      ],
      "name": "addAuthorizedInsuranceCompany",
      "outputs": [],
      "stateMutability": "nonpayable",
      "type": "function"
    },
    {
      "inputs": [
        {
          "internalType": "address",
          "name": "patientAddress",
          "type": "address"
        },
        {
          "internalType": "address",
          "name": "hospitalAddress",
          "type": "address"
        }
      ],
      "name": "addAuthorizedHospital",
      "outputs": [],
      "stateMutability": "nonpayable",
      "type": "function"
    }
  ],
  "bytecode": "0x608060405234801561001057600080fd5b50600080546001600160a01b03191633179055611d62806100326000396000f3fe608060405234801561001057600080fd5b50600436106101425760003560e01c8063b22e9eae116100b8578063d9ad23001161007c578063d9ad2300146102de578063db66c060146102f1578063e333372714610304578063f093cf8014610317578063f851a4401461032a578063ff41c9141461033d57600080fd5b8063b22e9eae14610267578063b2e6b9121461027a578063b40f16911461028b578063b6f28a6c1461029e578063d31e3729146102be57600080fd5b806363761fda1161010a57806363761fda146101db57806379860e62146101f05780638486f67a14610203578063888a6d0214610216578063a3fe74f714610241578063a9c3d9511461025457600080fd5b80630869cfbc1461014757806309bd7f451461017157806318a231a9146101915780634b426178146101a65780634e9f7154146101c6575b600080fd5b61015a6101553660046117fc565b610352565b60405161016892919061186b565b60405180910390f35b61018461017f3660046117fc565b61047e565b604051610168919061190b565b6101996105ae565b6040516101689190611980565b6101b96101b43660046117fc565b61089f565b60405161016891906119e2565b6101ce610ad2565b60405161016891906119f5565b6101ee6101e9366004611a60565b610cb1565b005b6101ee6101fe366004611b22565b610d9e565b6101846102113660046117fc565b610e8d565b610229610224366004611b55565b610ed2565b6040516001600160a01b039091168152602001610168565b6101ee61024f366004611a60565b610efc565b6101ee610262366004611b22565b610fdb565b6101ee610275366004611a60565b6110cb565b6000546001600160a01b0316610229565b610229610299366004611b55565b6111aa565b6102b16102ac3660046117fc565b6111ba565b6040516101689190611b6e565b6102d16102cc3660046117fc565b611258565b6040516101689190611b81565b6102296102ec366004611b55565b6112d1565b6101ee6102ff366004611a60565b6112e1565b6102d16103123660046117fc565b611481565b6102b16103253660046117fc565b6114f8565b600054610229906001600160a01b031681565b610345611513565b6040516101689190611bce565b60016020526000908152604090208054819061036d90611c23565b80601f016020809104026020016040519081016040528092919081815260200182805461039990611c23565b80156103e65780601f106103bb576101008083540402835291602001916103e6565b820191906000526020600020905b8154815290600101906020018083116103c957829003601f168201915b5050505050908060030180546103fb90611c23565b80601f016020809104026020016040519081016040528092919081815260200182805461042790611c23565b80156104745780601f1061044957610100808354040283529160200191610474565b820191906000526020600020905b81548152906001019060200180831161045757829003601f168201915b5050505050905082565b60408051808201909152606080825260208201526001600160a01b0382166000908152600260205260409081902081518083019092528054829082906104c390611c23565b80601f01602080910402602001604051908101604052809291908181526020018280546104ef90611c23565b801561053c5780601f106105115761010080835404028352916020019161053c565b820191906000526020600020905b81548152906001019060200180831161051f57829003601f168201915b505050505081526020016001820180548060200260200160405190810160405280929190818152602001828054801561059e57602002820191906000526020600020905b81546001600160a01b03168152600190910190602001808311610580575b5050505050815250509050919050565b60055460609060009067ffffffffffffffff8111156105cf576105cf611a4a565b60405190808252806020026020018201604052801561062b57816020015b6106186040518060800160405280606081526020016060815260200160608152602001606081525090565b8152602001906001900390816105ed5790505b50905060005b60055481101561089957600160006005838154811061065257610652611c58565b60009182526020808320909101546001600160a01b03168352820192909252604090810190912081516080810190925280548290829061069190611c23565b80601f01602080910402602001604051908101604052809291908181526020018280546106bd90611c23565b801561070a5780601f106106df5761010080835404028352916020019161070a565b820191906000526020600020905b8154815290600101906020018083116106ed57829003601f168201915b505050505081526020016001820180548060200260200160405190810160405280929190818152602001828054801561076c57602002820191906000526020600020905b81546001600160a01b0316815260019091019060200180831161074e575b50505050508152602001600282018054806020026020016040519081016040528092919081815260200182805480156107ce57602002820191906000526020600020905b81546001600160a01b031681526001909101906020018083116107b0575b505050505081526020016003820180546107e790611c23565b80601f016020809104026020016040519081016040528092919081815260200182805461081390611c23565b80156108605780601f1061083557610100808354040283529160200191610860565b820191906000526020600020905b81548152906001019060200180831161084357829003601f168201915b50505050508152505082828151811061087b5761087b611c58565b6020026020010181905250808061089190611c6e565b915050610631565b50919050565b6108ca6040518060800160405280606081526020016060815260200160608152602001606081525090565b6001600160a01b038216600090815260016020526040908190208151608081019092528054829082906108fc90611c23565b80601f016020809104026020016040519081016040528092919081815260200182805461092890611c23565b80156109755780601f1061094a57610100808354040283529160200191610975565b820191906000526020600020905b81548152906001019060200180831161095857829003601f168201915b50505050508152602001600182018054806020026020016040519081016040528092919081815260200182805480156109d757602002820191906000526020600020905b81546001600160a01b031681526001909101906020018083116109b9575b5050505050815260200160028201805480602002602001604051908101604052809291908181526020018280548015610a3957602002820191906000526020600020905b81546001600160a01b03168152600190910190602001808311610a1b575b50505050508152602001600382018054610a5290611c23565b80601f0160208091040260200160405190810160405280929190818152602001828054610a7e90611c23565b801561059e5780601f10610aa05761010080835404028352916020019161059e565b820191906000526020600020905b815481529060010190602001808311610aae57505050919092525091949350505050565b60045460609060009067ffffffffffffffff811115610af357610af3611a4a565b604051908082528060200260200182016040528015610b3857816020015b6040805180820190915260608082526020820152815260200190600190039081610b115790505b50905060005b600454811015610899576003600060048381548110610b5f57610b5f611c58565b60009182526020808320909101546001600160a01b0316835282019290925260409081019091208151808301909252805482908290610b9d90611c23565b80601f0160208091040260200160405190810160405280929190818152602001828054610bc990611c23565b8015610c165780601f10610beb57610100808354040283529160200191610c16565b820191906000526020600020905b815481529060010190602001808311610bf957829003601f168201915b5050505050815260200160018201805480602002602001604051908101604052809291908181526020018280548015610c7857602002820191906000526020600020905b81546001600160a01b03168152600190910190602001808311610c5a575b505050505081525050828281518110610c9357610c93611c58565b60200260200101819052508080610ca990611c6e565b915050610b3e565b816000805b6001600160a01b03831660009081526001602081905260409091200154811015610d41576001600160a01b038316600090815260016020819052604090912001805433919083908110610d0b57610d0b611c58565b6000918252602090912001546001600160a01b03161415610d2f5760019150610d41565b80610d3981611c6e565b915050610cb6565b5080610d685760405162461bcd60e51b8152600401610d5f90611c97565b60405180910390fd5b6001600160a01b03841660009081526001602090815260409091208451610d97926003909201918601906116f2565b5050505050565b816000805b6001600160a01b03831660009081526001602081905260409091200154811015610e2e576001600160a01b038316600090815260016020819052604090912001805433919083908110610df857610df8611c58565b6000918252602090912001546001600160a01b03161415610e1c5760019150610e2e565b80610e2681611c6e565b915050610da3565b5080610e4c5760405162461bcd60e51b8152600401610d5f90611c97565b50506001600160a01b039182166000908152600160208181526040832082018054928301815583529091200180546001600160a01b03191691909216179055565b60408051808201909152606080825260208201526001600160a01b0382166000908152600360205260409081902081518083019092528054829082906104c390611c23565b60068181548110610ee257600080fd5b6000918252602090912001546001600160a01b0316905081565b6000546001600160a01b03163314610f265760405162461bcd60e51b8152600401610d5f90611ce9565b6001600160a01b03821660009081526002602090815260409091208251610f4f928401906116f2565b5060408051600080825260208083018085526001600160a01b038716835260029091529290209051610f879260019092019190611776565b5050600680546001810182556000919091527ff652222313e28459528d920b65115c16c04f3efc82aaedc97be59f3f377c0d3f0180546001600160a01b0319166001600160a01b0392909216919091179055565b816000805b6001600160a01b0383166000908152600160208190526040909120015481101561106b576001600160a01b03831660009081526001602081905260409091200180543391908390811061103557611035611c58565b6000918252602090912001546001600160a01b03161415611059576001915061106b565b8061106381611c6e565b915050610fe0565b50806110895760405162461bcd60e51b8152600401610d5f90611c97565b50506001600160a01b03918216600090815260016020818152604083206002018054928301815583529091200180546001600160a01b03191691909216179055565b6000546001600160a01b031633146110f55760405162461bcd60e51b8152600401610d5f90611ce9565b6001600160a01b0382166000908152600360209081526040909120825161111e928401906116f2565b5060408051600080825260208083018085526001600160a01b0387168352600390915292902090516111569260019092019190611776565b5050600480546001810182556000919091527f8a35acfbc15ff81a39ae7d344fd709f28e8600b4aa8c65c6b64bfe7fe36bd19b0180546001600160a01b0319166001600160a01b0392909216919091179055565b60058181548110610ee257600080fd5b6002602052600090815260409020805481906111d590611c23565b80601f016020809104026020016040519081016040528092919081815260200182805461120190611c23565b801561124e5780601f106112235761010080835404028352916020019161124e565b820191906000526020600020905b81548152906001019060200180831161123157829003601f168201915b5050505050905081565b6001600160a01b0381166000908152600160208181526040928390209091018054835181840281018401909452808452606093928301828280156112c557602002820191906000526020600020905b81546001600160a01b031681526001909101906020018083116112a7575b50505050509050919050565b60048181548110610ee257600080fd5b33600090815260036020526040902080546112fb90611c23565b1515905061135c5760405162461bcd60e51b815260206004820152602860248201527f4f6e6c79206120686f73706974616c2063616e20706572666f726d20746869736044820152671030b1ba34b7b71760c11b6064820152608401610d5f565b6001600160a01b03821660009081526001602090815260409091208251611385928401906116f2565b506001600160a01b0382166000818152600160208181526040808420808401805480860182559086528386200180546001600160a01b03191633179055815180830190925260128252717b22636f6e74656e74223a226e756c6c227d60701b828401908152959094529190525161140292600390920191906116f2565b5050336000908152600360209081526040822060019081018054808301825590845291832090910180546001600160a01b03949094166001600160a01b031994851681179091556005805492830181559092527f036b6384b5eca791c62761152d0c79bb0604c104a5fb6f4eb0703f3154bb3db0018054909216179055565b6001600160a01b0381166000908152600160209081526040918290206002018054835181840281018401909452808452606093928301828280156112c5576020028201919060005260206000209081546001600160a01b031681526001909101906020018083116112a75750505050509050919050565b6003602052600090815260409020805481906111d590611c23565b60065460609060009067ffffffffffffffff81111561153457611534611a4a565b60405190808252806020026020018201604052801561157957816020015b60408051808201909152606080825260208201528152602001906001900390816115525790505b50905060005b6006548110156108995760026000600683815481106115a0576115a0611c58565b60009182526020808320909101546001600160a01b03168352820192909252604090810190912081518083019092528054829082906115de90611c23565b80601f016020809104026020016040519081016040528092919081815260200182805461160a90611c23565b80156116575780601f1061162c57610100808354040283529160200191611657565b820191906000526020600020905b81548152906001019060200180831161163a57829003601f168201915b50505050508152602001600182018054806020026020016040519081016040528092919081815260200182805480156116b957602002820191906000526020600020905b81546001600160a01b0316815260019091019060200180831161169b575b5050505050815250508282815181106116d4576116d4611c58565b602002602001018190525080806116ea90611c6e565b91505061157f565b8280546116fe90611c23565b90600052602060002090601f0160209004810192826117205760008555611766565b82601f1061173957805160ff1916838001178555611766565b82800160010185558215611766579182015b8281111561176657825182559160200191906001019061174b565b506117729291506117cb565b5090565b828054828255906000526020600020908101928215611766579160200282015b8281111561176657825182546001600160a01b0319166001600160a01b03909116178255602090920191600190910190611796565b5b8082111561177257600081556001016117cc565b80356001600160a01b03811681146117f757600080fd5b919050565b60006020828403121561180e57600080fd5b611817826117e0565b9392505050565b6000815180845260005b8181101561184457602081850181015186830182015201611828565b81811115611856576000602083870101525b50601f01601f19169290920160200192915050565b60408152600061187e604083018561181e565b8281036020840152611890818561181e565b95945050505050565b600081518084526020808501945080840160005b838110156118d25781516001600160a01b0316875295820195908201906001016118ad565b509495945050505050565b60008151604084526118f2604085018261181e565b9050602083015184820360208601526118908282611899565b60208152600061181760208301846118dd565b6000815160808452611933608085018261181e565b90506020830151848203602086015261194c8282611899565b915050604083015184820360408601526119668282611899565b91505060608301518482036060860152611890828261181e565b6000602080830181845280855180835260408601915060408160051b870101925083870160005b828110156119d557603f198886030184526119c385835161191e565b945092850192908501906001016119a7565b5092979650505050505050565b602081526000611817602083018461191e565b6000602080830181845280855180835260408601915060408160051b870101925083870160005b828110156119d557603f19888603018452611a388583516118dd565b94509285019290850190600101611a1c565b634e487b7160e01b600052604160045260246000fd5b60008060408385031215611a7357600080fd5b611a7c836117e0565b9150602083013567ffffffffffffffff80821115611a9957600080fd5b818501915085601f830112611aad57600080fd5b813581811115611abf57611abf611a4a565b604051601f8201601f19908116603f01168101908382118183101715611ae757611ae7611a4a565b81604052828152886020848701011115611b0057600080fd5b8260208601602083013760006020848301015280955050505050509250929050565b60008060408385031215611b3557600080fd5b611b3e836117e0565b9150611b4c602084016117e0565b90509250929050565b600060208284031215611b6757600080fd5b5035919050565b602081526000611817602083018461181e565b6020808252825182820181905260009190848201906040850190845b81811015611bc25783516001600160a01b031683529284019291840191600101611b9d565b50909695505050505050565b6000602080830181845280855180835260408601915060408160051b870101925083870160005b828110156119d557603f19888603018452611c118583516118dd565b94509285019290850190600101611bf5565b600181811c90821680611c3757607f821691505b6020821081141561089957634e487b7160e01b600052602260045260246000fd5b634e487b7160e01b600052603260045260246000fd5b6000600019821415611c9057634e487b7160e01b600052601160045260246000fd5b5060010190565b60208082526032908201527f4f6e6c7920617574686f72697a656420686f73706974616c732063616e207065604082015271393337b936903a3434b99030b1ba34b7b71760711b606082015260800190565b60208082526023908201527f4f6e6c792061646d696e2063616e20706572666f726d2074686973206163746960408201526237b71760e91b60608201526080019056fea2646970667358221220e0d326f73f4909463e3e7c878391872523aea21d842c9d4d7e975b276ba62fc264736f6c63430008090033",
  "immutableReferences": {},
  "source": "// SPDX-License-Identifier: UNLICENSED\npragma solidity ^0.8.9;\n\ncontract MedicalRecords {\n    address public admin;\n\n    struct Patient {\n        string patientId;\n        address[] authorizedHospitals;\n        address[] authorizedInsuranceCompanies;\n        string patientData;\n    }\n\n    struct InsuranceCompany {\n        string insuranceProviderId;\n        address[] patientAddresses;\n    }\n\n    struct Hospital {\n        string hospitalId;\n        address[] patientAddresses;\n    }\n\n    // mappings to store patient, insurance company and hospitals\n    mapping(address => Patient) public patients;\n    mapping(address => InsuranceCompany) public insuranceCompanies;\n    mapping(address => Hospital) public hospitals;\n\n    // arrays to store addresses\n    address[] public hospitalAddresses;\n    address[] public patientAddresses;\n    address[] public insuranceCompanyAddresses;\n\n    // restricts to admin\n    modifier onlyAdmin() {\n        require(msg.sender == admin, \"Only admin can perform this action.\");\n        _;\n    }\n\n    // restricts to hospital\n    modifier onlyHospital() {\n        require(\n            bytes(hospitals[msg.sender].hospitalId).length != 0,\n            \"Only a hospital can perform this action.\"\n        );\n        _;\n    }\n\n    // Modifier to restrict access to authorized hospitals\n    modifier onlyAuthorizedHospital(address patientAddress) {\n        bool isAuthorized = false;\n        for (\n            uint256 i = 0;\n            i < patients[patientAddress].authorizedHospitals.length;\n            i++\n        ) {\n            if (patients[patientAddress].authorizedHospitals[i] == msg.sender) {\n                isAuthorized = true;\n                break;\n            }\n        }\n        require(\n            isAuthorized,\n            \"Only authorized hospitals can perform this action.\"\n        );\n        _;\n    }\n\n    constructor() {\n        admin = msg.sender;\n    }\n\n    // Function to view the admin address\n    function getAdminAddress() public view returns (address) {\n        return admin;\n    }\n\n    // function to create hospital by admin\n    function createHospital(\n        address hospitalAddress,\n        string memory hospitalId\n    ) public onlyAdmin {\n        hospitals[hospitalAddress].hospitalId = hospitalId;\n        hospitals[hospitalAddress].patientAddresses = new address[](0);\n        hospitalAddresses.push(hospitalAddress);\n    }\n\n    // function to create insurance company by admin\n    function createInsuranceCompany(\n        address insuranceCompanyAddress,\n        string memory insuranceProviderId\n    ) public onlyAdmin {\n        insuranceCompanies[insuranceCompanyAddress]\n            .insuranceProviderId = insuranceProviderId;\n        insuranceCompanies[insuranceCompanyAddress]\n            .patientAddresses = new address[](0);\n\n        insuranceCompanyAddresses.push(insuranceCompanyAddress);\n    }\n\n    function addPatient(\n        address patientAddress,\n        string memory patientId\n    ) public onlyHospital {\n        patients[patientAddress].patientId = patientId;\n        patients[patientAddress].authorizedHospitals.push(msg.sender);\n        patients[patientAddress].patientData = '{\"content\":\"null\"}';\n\n        // adding patient to the patient list of the hospital\n        hospitals[msg.sender].patientAddresses.push(patientAddress);\n\n        patientAddresses.push(patientAddress);\n    }\n\n    // get all hospital details\n    function getAllHospitals() public view returns (Hospital[] memory) {\n        Hospital[] memory allHospitals = new Hospital[](\n            hospitalAddresses.length\n        );\n\n        for (uint256 i = 0; i < hospitalAddresses.length; i++) {\n            allHospitals[i] = hospitals[hospitalAddresses[i]];\n        }\n\n        return allHospitals;\n    }\n\n    function getAllPatients() public view returns (Patient[] memory) {\n        Patient[] memory allPatients = new Patient[](patientAddresses.length);\n\n        for (uint256 i = 0; i < patientAddresses.length; i++) {\n            allPatients[i] = patients[patientAddresses[i]];\n        }\n\n        return allPatients;\n    }\n\n    function getAllInsuranceCompanies()\n        public\n        view\n        returns (InsuranceCompany[] memory)\n    {\n        InsuranceCompany[]\n            memory allInsuranceCompanies = new InsuranceCompany[](\n                insuranceCompanyAddresses.length\n            );\n\n        for (uint256 i = 0; i < insuranceCompanyAddresses.length; i++) {\n            allInsuranceCompanies[i] = insuranceCompanies[\n                insuranceCompanyAddresses[i]\n            ];\n        }\n\n        return allInsuranceCompanies;\n    }\n\n    function getPatientInfo(\n        address patientAddress\n    ) public view returns (Patient memory) {\n        return patients[patientAddress];\n    }\n\n    function getHospitalInfo(\n        address hospitalAddress\n    ) public view returns (Hospital memory) {\n        return hospitals[hospitalAddress];\n    }\n\n    function getInsuranceCompanyInfo(\n        address insuranceCompanyAddress\n    ) public view returns (InsuranceCompany memory) {\n        return insuranceCompanies[insuranceCompanyAddress];\n    }\n\n    // update patient data\n    // Function to update the patientData of a specific patient\n    function updatePatientData(\n        address patientAddress,\n        string memory newPatientData\n    ) public onlyAuthorizedHospital(patientAddress) {\n        patients[patientAddress].patientData = newPatientData;\n    }\n\n    function getAuthorizedHospitals(\n        address patientAddress\n    ) public view returns (address[] memory) {\n        return patients[patientAddress].authorizedHospitals;\n    }\n\n    // Function to get the addresses of authorized insurance companies for a patient\n    function getAuthorizedInsuranceCompanies(\n        address patientAddress\n    ) public view returns (address[] memory) {\n        return patients[patientAddress].authorizedInsuranceCompanies;\n    }\n\n    // authorized hospital can push a insurance company to the authorized insurance companies list\n    function addAuthorizedInsuranceCompany(\n        address patientAddress,\n        address insuranceCompanyAddress\n    ) public onlyAuthorizedHospital(patientAddress) {\n        patients[patientAddress].authorizedInsuranceCompanies.push(\n            insuranceCompanyAddress\n        );\n    }\n\n    // authorized hospital can push a another hospital to the authorized hospitals list\n    function addAuthorizedHospital(\n        address patientAddress,\n        address hospitalAddress\n    ) public onlyAuthorizedHospital(patientAddress) {\n        patients[patientAddress].authorizedHospitals.push(hospitalAddress);\n    }\n}\n",
  "sourcePath": "/home/adarsh/Adarsh/Misc/Projects/blockchain/patient_data_management_system/contracts/MedicalRecords.sol",
  "compiler": {
    "name": "solc",
    "version": "0.8.9+commit.e5eed63a.Emscripten.clang"
  },
  "schemaVersion": "3.4.3",
  "updatedAt": "2023-05-30T08:05:29.495Z",
  "networkType": "ethereum",
  "devdoc": {
    "kind": "dev",
    "methods": {},
    "version": 1
  },
  "userdoc": {
    "kind": "user",
    "methods": {},
    "version": 1
  }
}