{
  "contractName": "MedicalRecords",
  "abi": [
    {
      "inputs": [],
      "stateMutability": "nonpayable",
      "type": "constructor"
    },
    {
      "inputs": [],
      "name": "admin",
      "outputs": [
        {
          "internalType": "address",
          "name": "",
          "type": "address"
        }
      ],
      "stateMutability": "view",
      "type": "function",
      "constant": true
    },
    {
      "inputs": [
        {
          "internalType": "uint256",
          "name": "",
          "type": "uint256"
        }
      ],
      "name": "hospitalAddresses",
      "outputs": [
        {
          "internalType": "address",
          "name": "",
          "type": "address"
        }
      ],
      "stateMutability": "view",
      "type": "function",
      "constant": true
    },
    {
      "inputs": [
        {
          "internalType": "address",
          "name": "",
          "type": "address"
        }
      ],
      "name": "hospitals",
      "outputs": [
        {
          "internalType": "string",
          "name": "hospitalId",
          "type": "string"
        }
      ],
      "stateMutability": "view",
      "type": "function",
      "constant": true
    },
    {
      "inputs": [
        {
          "internalType": "address",
          "name": "",
          "type": "address"
        }
      ],
      "name": "insuranceCompanies",
      "outputs": [
        {
          "internalType": "string",
          "name": "insuranceProviderId",
          "type": "string"
        }
      ],
      "stateMutability": "view",
      "type": "function",
      "constant": true
    },
    {
      "inputs": [
        {
          "internalType": "uint256",
          "name": "",
          "type": "uint256"
        }
      ],
      "name": "insuranceCompanyAddresses",
      "outputs": [
        {
          "internalType": "address",
          "name": "",
          "type": "address"
        }
      ],
      "stateMutability": "view",
      "type": "function",
      "constant": true
    },
    {
      "inputs": [
        {
          "internalType": "uint256",
          "name": "",
          "type": "uint256"
        }
      ],
      "name": "patientAddresses",
      "outputs": [
        {
          "internalType": "address",
          "name": "",
          "type": "address"
        }
      ],
      "stateMutability": "view",
      "type": "function",
      "constant": true
    },
    {
      "inputs": [
        {
          "internalType": "address",
          "name": "",
          "type": "address"
        }
      ],
      "name": "patients",
      "outputs": [
        {
          "internalType": "string",
          "name": "patientId",
          "type": "string"
        }
      ],
      "stateMutability": "view",
      "type": "function",
      "constant": true
    },
    {
      "inputs": [],
      "name": "getAdminAddress",
      "outputs": [
        {
          "internalType": "address",
          "name": "",
          "type": "address"
        }
      ],
      "stateMutability": "view",
      "type": "function",
      "constant": true
    },
    {
      "inputs": [
        {
          "internalType": "address",
          "name": "hospitalAddress",
          "type": "address"
        },
        {
          "internalType": "string",
          "name": "hospitalId",
          "type": "string"
        }
      ],
      "name": "createHospital",
      "outputs": [],
      "stateMutability": "nonpayable",
      "type": "function"
    },
    {
      "inputs": [
        {
          "internalType": "address",
          "name": "insuranceCompanyAddress",
          "type": "address"
        },
        {
          "internalType": "string",
          "name": "insuranceProviderId",
          "type": "string"
        }
      ],
      "name": "createInsuranceCompany",
      "outputs": [],
      "stateMutability": "nonpayable",
      "type": "function"
    },
    {
      "inputs": [
        {
          "internalType": "address",
          "name": "patientAddress",
          "type": "address"
        },
        {
          "internalType": "string",
          "name": "patientId",
          "type": "string"
        }
      ],
      "name": "addPatient",
      "outputs": [],
      "stateMutability": "nonpayable",
      "type": "function"
    },
    {
      "inputs": [],
      "name": "getAllHospitals",
      "outputs": [
        {
          "components": [
            {
              "internalType": "string",
              "name": "hospitalId",
              "type": "string"
            },
            {
              "internalType": "address[]",
              "name": "patientAddresses",
              "type": "address[]"
            }
          ],
          "internalType": "struct MedicalRecords.Hospital[]",
          "name": "",
          "type": "tuple[]"
        }
      ],
      "stateMutability": "view",
      "type": "function",
      "constant": true
    },
    {
      "inputs": [],
      "name": "getAllPatients",
      "outputs": [
        {
          "components": [
            {
              "internalType": "string",
              "name": "patientId",
              "type": "string"
            },
            {
              "internalType": "address[]",
              "name": "authorizedHospitals",
              "type": "address[]"
            },
            {
              "internalType": "address[]",
              "name": "authorizedInsuranceCompanies",
              "type": "address[]"
            },
            {
              "internalType": "string[]",
              "name": "patientData",
              "type": "string[]"
            }
          ],
          "internalType": "struct MedicalRecords.Patient[]",
          "name": "",
          "type": "tuple[]"
        }
      ],
      "stateMutability": "view",
      "type": "function",
      "constant": true
    },
    {
      "inputs": [],
      "name": "getAllInsuranceCompanies",
      "outputs": [
        {
          "components": [
            {
              "internalType": "string",
              "name": "insuranceProviderId",
              "type": "string"
            },
            {
              "internalType": "address[]",
              "name": "patientAddresses",
              "type": "address[]"
            }
          ],
          "internalType": "struct MedicalRecords.InsuranceCompany[]",
          "name": "",
          "type": "tuple[]"
        }
      ],
      "stateMutability": "view",
      "type": "function",
      "constant": true
    },
    {
      "inputs": [
        {
          "internalType": "address",
          "name": "patientAddress",
          "type": "address"
        }
      ],
      "name": "getPatientInfo",
      "outputs": [
        {
          "components": [
            {
              "internalType": "string",
              "name": "patientId",
              "type": "string"
            },
            {
              "internalType": "address[]",
              "name": "authorizedHospitals",
              "type": "address[]"
            },
            {
              "internalType": "address[]",
              "name": "authorizedInsuranceCompanies",
              "type": "address[]"
            },
            {
              "internalType": "string[]",
              "name": "patientData",
              "type": "string[]"
            }
          ],
          "internalType": "struct MedicalRecords.Patient",
          "name": "",
          "type": "tuple"
        }
      ],
      "stateMutability": "view",
      "type": "function",
      "constant": true
    },
    {
      "inputs": [
        {
          "internalType": "address",
          "name": "hospitalAddress",
          "type": "address"
        }
      ],
      "name": "getHospitalInfo",
      "outputs": [
        {
          "components": [
            {
              "internalType": "string",
              "name": "hospitalId",
              "type": "string"
            },
            {
              "internalType": "address[]",
              "name": "patientAddresses",
              "type": "address[]"
            }
          ],
          "internalType": "struct MedicalRecords.Hospital",
          "name": "",
          "type": "tuple"
        }
      ],
      "stateMutability": "view",
      "type": "function",
      "constant": true
    },
    {
      "inputs": [
        {
          "internalType": "address",
          "name": "insuranceCompanyAddress",
          "type": "address"
        }
      ],
      "name": "getInsuranceCompanyInfo",
      "outputs": [
        {
          "components": [
            {
              "internalType": "string",
              "name": "insuranceProviderId",
              "type": "string"
            },
            {
              "internalType": "address[]",
              "name": "patientAddresses",
              "type": "address[]"
            }
          ],
          "internalType": "struct MedicalRecords.InsuranceCompany",
          "name": "",
          "type": "tuple"
        }
      ],
      "stateMutability": "view",
      "type": "function",
      "constant": true
    },
    {
      "inputs": [
        {
          "internalType": "address",
          "name": "patientAddress",
          "type": "address"
        },
        {
          "internalType": "string",
          "name": "newPatientData",
          "type": "string"
        }
      ],
      "name": "updatePatientData",
      "outputs": [],
      "stateMutability": "nonpayable",
      "type": "function"
    },
    {
      "inputs": [
        {
          "internalType": "address",
          "name": "patientAddress",
          "type": "address"
        }
      ],
      "name": "getAuthorizedHospitals",
      "outputs": [
        {
          "internalType": "address[]",
          "name": "",
          "type": "address[]"
        }
      ],
      "stateMutability": "view",
      "type": "function",
      "constant": true
    },
    {
      "inputs": [
        {
          "internalType": "address",
          "name": "patientAddress",
          "type": "address"
        }
      ],
      "name": "getAuthorizedInsuranceCompanies",
      "outputs": [
        {
          "internalType": "address[]",
          "name": "",
          "type": "address[]"
        }
      ],
      "stateMutability": "view",
      "type": "function",
      "constant": true
    },
    {
      "inputs": [
        {
          "internalType": "address",
          "name": "patientAddress",
          "type": "address"
        },
        {
          "internalType": "address",
          "name": "insuranceCompanyAddress",
          "type": "address"
        }
      ],
      "name": "addAuthorizedInsuranceCompany",
      "outputs": [],
      "stateMutability": "nonpayable",
      "type": "function"
    },
    {
      "inputs": [
        {
          "internalType": "address",
          "name": "patientAddress",
          "type": "address"
        },
        {
          "internalType": "address",
          "name": "hospitalAddress",
          "type": "address"
        }
      ],
      "name": "addAuthorizedHospital",
      "outputs": [],
      "stateMutability": "nonpayable",
      "type": "function"
    }
  ],
  "bytecode": "0x608060405234801561001057600080fd5b50600080546001600160a01b03191633179055611cb1806100326000396000f3fe608060405234801561001057600080fd5b50600436106101425760003560e01c8063b22e9eae116100b8578063d9ad23001161007c578063d9ad2300146102d0578063db66c060146102e3578063e3333727146102f6578063f093cf8014610309578063f851a4401461031c578063ff41c9141461032f57600080fd5b8063b22e9eae14610266578063b2e6b91214610279578063b40f16911461028a578063b6f28a6c1461029d578063d31e3729146102b057600080fd5b806363761fda1161010a57806363761fda146101da57806379860e62146101ef5780638486f67a14610202578063888a6d0214610215578063a3fe74f714610240578063a9c3d9511461025357600080fd5b80630869cfbc1461014757806309bd7f451461017057806318a231a9146101905780634b426178146101a55780634e9f7154146101c5575b600080fd5b61015a610155366004611724565b610344565b6040516101679190611793565b60405180910390f35b61018361017e366004611724565b6103e2565b6040516101679190611821565b610198610512565b60405161016791906118e2565b6101b86101b3366004611724565b61084a565b6040516101679190611944565b6101cd610acc565b6040516101679190611957565b6101ed6101e83660046119c2565b610cab565b005b6101ed6101fd366004611a84565b610da7565b610183610210366004611724565b610e96565b610228610223366004611ab7565b610edb565b6040516001600160a01b039091168152602001610167565b6101ed61024e3660046119c2565b610f05565b6101ed610261366004611a84565b610fe4565b6101ed6102743660046119c2565b6110d4565b6000546001600160a01b0316610228565b610228610298366004611ab7565b6111b3565b61015a6102ab366004611724565b6111c3565b6102c36102be366004611724565b6111de565b6040516101679190611ad0565b6102286102de366004611ab7565b611257565b6101ed6102f13660046119c2565b611267565b6102c3610304366004611724565b6113a9565b61015a610317366004611724565b611420565b600054610228906001600160a01b031681565b61033761143b565b6040516101679190611b1d565b60016020526000908152604090208054819061035f90611b72565b80601f016020809104026020016040519081016040528092919081815260200182805461038b90611b72565b80156103d85780601f106103ad576101008083540402835291602001916103d8565b820191906000526020600020905b8154815290600101906020018083116103bb57829003601f168201915b5050505050905081565b60408051808201909152606080825260208201526001600160a01b03821660009081526002602052604090819020815180830190925280548290829061042790611b72565b80601f016020809104026020016040519081016040528092919081815260200182805461045390611b72565b80156104a05780601f10610475576101008083540402835291602001916104a0565b820191906000526020600020905b81548152906001019060200180831161048357829003601f168201915b505050505081526020016001820180548060200260200160405190810160405280929190818152602001828054801561050257602002820191906000526020600020905b81546001600160a01b031681526001909101906020018083116104e4575b5050505050815250509050919050565b60055460609060009067ffffffffffffffff811115610533576105336119ac565b60405190808252806020026020018201604052801561058f57816020015b61057c6040518060800160405280606081526020016060815260200160608152602001606081525090565b8152602001906001900390816105515790505b50905060005b6005548110156108445760016000600583815481106105b6576105b6611ba7565b60009182526020808320909101546001600160a01b0316835282019290925260409081019091208151608081019092528054829082906105f590611b72565b80601f016020809104026020016040519081016040528092919081815260200182805461062190611b72565b801561066e5780601f106106435761010080835404028352916020019161066e565b820191906000526020600020905b81548152906001019060200180831161065157829003601f168201915b50505050508152602001600182018054806020026020016040519081016040528092919081815260200182805480156106d057602002820191906000526020600020905b81546001600160a01b031681526001909101906020018083116106b2575b505050505081526020016002820180548060200260200160405190810160405280929190818152602001828054801561073257602002820191906000526020600020905b81546001600160a01b03168152600190910190602001808311610714575b5050505050815260200160038201805480602002602001604051908101604052809291908181526020016000905b8282101561080c57838290600052602060002001805461077f90611b72565b80601f01602080910402602001604051908101604052809291908181526020018280546107ab90611b72565b80156107f85780601f106107cd576101008083540402835291602001916107f8565b820191906000526020600020905b8154815290600101906020018083116107db57829003601f168201915b505050505081526020019060010190610760565b505050508152505082828151811061082657610826611ba7565b6020026020010181905250808061083c90611bbd565b915050610595565b50919050565b6108756040518060800160405280606081526020016060815260200160608152602001606081525090565b6001600160a01b038216600090815260016020526040908190208151608081019092528054829082906108a790611b72565b80601f01602080910402602001604051908101604052809291908181526020018280546108d390611b72565b80156109205780601f106108f557610100808354040283529160200191610920565b820191906000526020600020905b81548152906001019060200180831161090357829003601f168201915b505050505081526020016001820180548060200260200160405190810160405280929190818152602001828054801561098257602002820191906000526020600020905b81546001600160a01b03168152600190910190602001808311610964575b50505050508152602001600282018054806020026020016040519081016040528092919081815260200182805480156109e457602002820191906000526020600020905b81546001600160a01b031681526001909101906020018083116109c6575b5050505050815260200160038201805480602002602001604051908101604052809291908181526020016000905b82821015610abe578382906000526020600020018054610a3190611b72565b80601f0160208091040260200160405190810160405280929190818152602001828054610a5d90611b72565b8015610aaa5780601f10610a7f57610100808354040283529160200191610aaa565b820191906000526020600020905b815481529060010190602001808311610a8d57829003601f168201915b505050505081526020019060010190610a12565b505050915250909392505050565b60045460609060009067ffffffffffffffff811115610aed57610aed6119ac565b604051908082528060200260200182016040528015610b3257816020015b6040805180820190915260608082526020820152815260200190600190039081610b0b5790505b50905060005b600454811015610844576003600060048381548110610b5957610b59611ba7565b60009182526020808320909101546001600160a01b0316835282019290925260409081019091208151808301909252805482908290610b9790611b72565b80601f0160208091040260200160405190810160405280929190818152602001828054610bc390611b72565b8015610c105780601f10610be557610100808354040283529160200191610c10565b820191906000526020600020905b815481529060010190602001808311610bf357829003601f168201915b5050505050815260200160018201805480602002602001604051908101604052809291908181526020018280548015610c7257602002820191906000526020600020905b81546001600160a01b03168152600190910190602001808311610c54575b505050505081525050828281518110610c8d57610c8d611ba7565b60200260200101819052508080610ca390611bbd565b915050610b38565b816000805b6001600160a01b03831660009081526001602081905260409091200154811015610d3b576001600160a01b038316600090815260016020819052604090912001805433919083908110610d0557610d05611ba7565b6000918252602090912001546001600160a01b03161415610d295760019150610d3b565b80610d3381611bbd565b915050610cb0565b5080610d625760405162461bcd60e51b8152600401610d5990611be6565b60405180910390fd5b6001600160a01b03841660009081526001602081815260408320600301805492830181558352918290208551610da09391909201919086019061161a565b5050505050565b816000805b6001600160a01b03831660009081526001602081905260409091200154811015610e37576001600160a01b038316600090815260016020819052604090912001805433919083908110610e0157610e01611ba7565b6000918252602090912001546001600160a01b03161415610e255760019150610e37565b80610e2f81611bbd565b915050610dac565b5080610e555760405162461bcd60e51b8152600401610d5990611be6565b50506001600160a01b039182166000908152600160208181526040832082018054928301815583529091200180546001600160a01b03191691909216179055565b60408051808201909152606080825260208201526001600160a01b03821660009081526003602052604090819020815180830190925280548290829061042790611b72565b60068181548110610eeb57600080fd5b6000918252602090912001546001600160a01b0316905081565b6000546001600160a01b03163314610f2f5760405162461bcd60e51b8152600401610d5990611c38565b6001600160a01b03821660009081526002602090815260409091208251610f589284019061161a565b5060408051600080825260208083018085526001600160a01b038716835260029091529290209051610f90926001909201919061169e565b5050600680546001810182556000919091527ff652222313e28459528d920b65115c16c04f3efc82aaedc97be59f3f377c0d3f0180546001600160a01b0319166001600160a01b0392909216919091179055565b816000805b6001600160a01b03831660009081526001602081905260409091200154811015611074576001600160a01b03831660009081526001602081905260409091200180543391908390811061103e5761103e611ba7565b6000918252602090912001546001600160a01b031614156110625760019150611074565b8061106c81611bbd565b915050610fe9565b50806110925760405162461bcd60e51b8152600401610d5990611be6565b50506001600160a01b03918216600090815260016020818152604083206002018054928301815583529091200180546001600160a01b03191691909216179055565b6000546001600160a01b031633146110fe5760405162461bcd60e51b8152600401610d5990611c38565b6001600160a01b038216600090815260036020908152604090912082516111279284019061161a565b5060408051600080825260208083018085526001600160a01b03871683526003909152929020905161115f926001909201919061169e565b5050600480546001810182556000919091527f8a35acfbc15ff81a39ae7d344fd709f28e8600b4aa8c65c6b64bfe7fe36bd19b0180546001600160a01b0319166001600160a01b0392909216919091179055565b60058181548110610eeb57600080fd5b60026020526000908152604090208054819061035f90611b72565b6001600160a01b03811660009081526001602081815260409283902090910180548351818402810184019094528084526060939283018282801561124b57602002820191906000526020600020905b81546001600160a01b0316815260019091019060200180831161122d575b50505050509050919050565b60048181548110610eeb57600080fd5b336000908152600360205260409020805461128190611b72565b151590506112e25760405162461bcd60e51b815260206004820152602860248201527f4f6e6c79206120686f73706974616c2063616e20706572666f726d20746869736044820152671030b1ba34b7b71760c11b6064820152608401610d59565b6001600160a01b0382166000908152600160209081526040909120825161130b9284019061161a565b50506001600160a01b03166000818152600160208181526040808420830180548085018255908552828520018054336001600160a01b031991821681179092559085526003835290842083018054808501825590855291842090910180548216851790556005805492830181559092527f036b6384b5eca791c62761152d0c79bb0604c104a5fb6f4eb0703f3154bb3db00180549091169091179055565b6001600160a01b03811660009081526001602090815260409182902060020180548351818402810184019094528084526060939283018282801561124b576020028201919060005260206000209081546001600160a01b0316815260019091019060200180831161122d5750505050509050919050565b60036020526000908152604090208054819061035f90611b72565b60065460609060009067ffffffffffffffff81111561145c5761145c6119ac565b6040519080825280602002602001820160405280156114a157816020015b604080518082019091526060808252602082015281526020019060019003908161147a5790505b50905060005b6006548110156108445760026000600683815481106114c8576114c8611ba7565b60009182526020808320909101546001600160a01b031683528201929092526040908101909120815180830190925280548290829061150690611b72565b80601f016020809104026020016040519081016040528092919081815260200182805461153290611b72565b801561157f5780601f106115545761010080835404028352916020019161157f565b820191906000526020600020905b81548152906001019060200180831161156257829003601f168201915b50505050508152602001600182018054806020026020016040519081016040528092919081815260200182805480156115e157602002820191906000526020600020905b81546001600160a01b031681526001909101906020018083116115c3575b5050505050815250508282815181106115fc576115fc611ba7565b6020026020010181905250808061161290611bbd565b9150506114a7565b82805461162690611b72565b90600052602060002090601f016020900481019282611648576000855561168e565b82601f1061166157805160ff191683800117855561168e565b8280016001018555821561168e579182015b8281111561168e578251825591602001919060010190611673565b5061169a9291506116f3565b5090565b82805482825590600052602060002090810192821561168e579160200282015b8281111561168e57825182546001600160a01b0319166001600160a01b039091161782556020909201916001909101906116be565b5b8082111561169a57600081556001016116f4565b80356001600160a01b038116811461171f57600080fd5b919050565b60006020828403121561173657600080fd5b61173f82611708565b9392505050565b6000815180845260005b8181101561176c57602081850181015186830182015201611750565b8181111561177e576000602083870101525b50601f01601f19169290920160200192915050565b60208152600061173f6020830184611746565b600081518084526020808501945080840160005b838110156117df5781516001600160a01b0316875295820195908201906001016117ba565b509495945050505050565b60008151604084526117ff6040850182611746565b90506020830151848203602086015261181882826117a6565b95945050505050565b60208152600061173f60208301846117ea565b60008151608084526118496080850182611746565b90506020808401518583038287015261186283826117a6565b9250506040840151858303604087015261187c83826117a6565b925050606084015185830360608701528281518085528385019150838160051b860101848401935060005b828110156118d557601f198783030184526118c3828651611746565b948601949386019391506001016118a7565b5098975050505050505050565b6000602080830181845280855180835260408601915060408160051b870101925083870160005b8281101561193757603f19888603018452611925858351611834565b94509285019290850190600101611909565b5092979650505050505050565b60208152600061173f6020830184611834565b6000602080830181845280855180835260408601915060408160051b870101925083870160005b8281101561193757603f1988860301845261199a8583516117ea565b9450928501929085019060010161197e565b634e487b7160e01b600052604160045260246000fd5b600080604083850312156119d557600080fd5b6119de83611708565b9150602083013567ffffffffffffffff808211156119fb57600080fd5b818501915085601f830112611a0f57600080fd5b813581811115611a2157611a216119ac565b604051601f8201601f19908116603f01168101908382118183101715611a4957611a496119ac565b81604052828152886020848701011115611a6257600080fd5b8260208601602083013760006020848301015280955050505050509250929050565b60008060408385031215611a9757600080fd5b611aa083611708565b9150611aae60208401611708565b90509250929050565b600060208284031215611ac957600080fd5b5035919050565b6020808252825182820181905260009190848201906040850190845b81811015611b115783516001600160a01b031683529284019291840191600101611aec565b50909695505050505050565b6000602080830181845280855180835260408601915060408160051b870101925083870160005b8281101561193757603f19888603018452611b608583516117ea565b94509285019290850190600101611b44565b600181811c90821680611b8657607f821691505b6020821081141561084457634e487b7160e01b600052602260045260246000fd5b634e487b7160e01b600052603260045260246000fd5b6000600019821415611bdf57634e487b7160e01b600052601160045260246000fd5b5060010190565b60208082526032908201527f4f6e6c7920617574686f72697a656420686f73706974616c732063616e207065604082015271393337b936903a3434b99030b1ba34b7b71760711b606082015260800190565b60208082526023908201527f4f6e6c792061646d696e2063616e20706572666f726d2074686973206163746960408201526237b71760e91b60608201526080019056fea2646970667358221220d24af708896458a918651003b62cfdc8f32e594eb94972d1c1f1c1961a0eebab64736f6c63430008090033",
  "immutableReferences": {},
  "source": "// SPDX-License-Identifier: UNLICENSED\npragma solidity ^0.8.9;\n\ncontract MedicalRecords {\n    address public admin;\n\n    struct Patient {\n        string patientId;\n        address[] authorizedHospitals;\n        address[] authorizedInsuranceCompanies;\n        string[] patientData;\n    }\n\n    struct InsuranceCompany {\n        string insuranceProviderId;\n        address[] patientAddresses;\n    }\n\n    struct Hospital {\n        string hospitalId;\n        address[] patientAddresses;\n    }\n\n    // mappings to store patient, insurance company and hospitals\n    mapping(address => Patient) public patients;\n    mapping(address => InsuranceCompany) public insuranceCompanies;\n    mapping(address => Hospital) public hospitals;\n\n    // arrays to store addresses\n    address[] public hospitalAddresses;\n    address[] public patientAddresses;\n    address[] public insuranceCompanyAddresses;\n\n    // restricts to admin\n    modifier onlyAdmin() {\n        require(msg.sender == admin, \"Only admin can perform this action.\");\n        _;\n    }\n\n    // restricts to hospital\n    modifier onlyHospital() {\n        require(\n            bytes(hospitals[msg.sender].hospitalId).length != 0,\n            \"Only a hospital can perform this action.\"\n        );\n        _;\n    }\n\n    // Modifier to restrict access to authorized hospitals\n    modifier onlyAuthorizedHospital(address patientAddress) {\n        bool isAuthorized = false;\n        for (\n            uint256 i = 0;\n            i < patients[patientAddress].authorizedHospitals.length;\n            i++\n        ) {\n            if (patients[patientAddress].authorizedHospitals[i] == msg.sender) {\n                isAuthorized = true;\n                break;\n            }\n        }\n        require(\n            isAuthorized,\n            \"Only authorized hospitals can perform this action.\"\n        );\n        _;\n    }\n\n    constructor() {\n        admin = msg.sender;\n    }\n\n    // Function to view the admin address\n    function getAdminAddress() public view returns (address) {\n        return admin;\n    }\n\n    // function to create hospital by admin\n    function createHospital(\n        address hospitalAddress,\n        string memory hospitalId\n    ) public onlyAdmin {\n        hospitals[hospitalAddress].hospitalId = hospitalId;\n        hospitals[hospitalAddress].patientAddresses = new address[](0);\n        hospitalAddresses.push(hospitalAddress);\n    }\n\n    // function to create insurance company by admin\n    function createInsuranceCompany(\n        address insuranceCompanyAddress,\n        string memory insuranceProviderId\n    ) public onlyAdmin {\n        insuranceCompanies[insuranceCompanyAddress]\n            .insuranceProviderId = insuranceProviderId;\n        insuranceCompanies[insuranceCompanyAddress]\n            .patientAddresses = new address[](0);\n\n        insuranceCompanyAddresses.push(insuranceCompanyAddress);\n    }\n\n    function addPatient(\n        address patientAddress,\n        string memory patientId\n    ) public onlyHospital {\n        patients[patientAddress].patientId = patientId;\n        patients[patientAddress].authorizedHospitals.push(msg.sender);\n\n        // adding patient to the patient list of the hospital\n        hospitals[msg.sender].patientAddresses.push(patientAddress);\n\n        patientAddresses.push(patientAddress);\n    }\n\n    // get all hospital details\n    function getAllHospitals() public view returns (Hospital[] memory) {\n        Hospital[] memory allHospitals = new Hospital[](\n            hospitalAddresses.length\n        );\n\n        for (uint256 i = 0; i < hospitalAddresses.length; i++) {\n            allHospitals[i] = hospitals[hospitalAddresses[i]];\n        }\n\n        return allHospitals;\n    }\n\n    function getAllPatients() public view returns (Patient[] memory) {\n        Patient[] memory allPatients = new Patient[](patientAddresses.length);\n\n        for (uint256 i = 0; i < patientAddresses.length; i++) {\n            allPatients[i] = patients[patientAddresses[i]];\n        }\n\n        return allPatients;\n    }\n\n    function getAllInsuranceCompanies()\n        public\n        view\n        returns (InsuranceCompany[] memory)\n    {\n        InsuranceCompany[]\n            memory allInsuranceCompanies = new InsuranceCompany[](\n                insuranceCompanyAddresses.length\n            );\n\n        for (uint256 i = 0; i < insuranceCompanyAddresses.length; i++) {\n            allInsuranceCompanies[i] = insuranceCompanies[\n                insuranceCompanyAddresses[i]\n            ];\n        }\n\n        return allInsuranceCompanies;\n    }\n\n    function getPatientInfo(\n        address patientAddress\n    ) public view returns (Patient memory) {\n        return patients[patientAddress];\n    }\n\n    function getHospitalInfo(\n        address hospitalAddress\n    ) public view returns (Hospital memory) {\n        return hospitals[hospitalAddress];\n    }\n\n    function getInsuranceCompanyInfo(\n        address insuranceCompanyAddress\n    ) public view returns (InsuranceCompany memory) {\n        return insuranceCompanies[insuranceCompanyAddress];\n    }\n\n    // update patient data\n    // Function to update the patientData of a specific patient\n    function updatePatientData(\n        address patientAddress,\n        string memory newPatientData\n    ) public onlyAuthorizedHospital(patientAddress) {\n        patients[patientAddress].patientData.push(newPatientData);\n    }\n\n    function getAuthorizedHospitals(\n        address patientAddress\n    ) public view returns (address[] memory) {\n        return patients[patientAddress].authorizedHospitals;\n    }\n\n    // Function to get the addresses of authorized insurance companies for a patient\n    function getAuthorizedInsuranceCompanies(\n        address patientAddress\n    ) public view returns (address[] memory) {\n        return patients[patientAddress].authorizedInsuranceCompanies;\n    }\n\n    // authorized hospital can push a insurance company to the authorized insurance companies list\n    function addAuthorizedInsuranceCompany(\n        address patientAddress,\n        address insuranceCompanyAddress\n    ) public onlyAuthorizedHospital(patientAddress) {\n        patients[patientAddress].authorizedInsuranceCompanies.push(\n            insuranceCompanyAddress\n        );\n    }\n\n    // authorized hospital can push a another hospital to the authorized hospitals list\n    function addAuthorizedHospital(\n        address patientAddress,\n        address hospitalAddress\n    ) public onlyAuthorizedHospital(patientAddress) {\n        patients[patientAddress].authorizedHospitals.push(hospitalAddress);\n    }\n}\n",
  "sourcePath": "/home/adarsh/Adarsh/Misc/Projects/blockchain/patient_data_management_system/contracts/MedicalRecords.sol",
  "compiler": {
    "name": "solc",
    "version": "0.8.9+commit.e5eed63a.Emscripten.clang"
  },
  "schemaVersion": "3.4.3",
  "updatedAt": "2023-05-30T09:59:22.036Z",
  "networkType": "ethereum",
  "devdoc": {
    "kind": "dev",
    "methods": {},
    "version": 1
  },
  "userdoc": {
    "kind": "user",
    "methods": {},
    "version": 1
  }
}